8=FIX.4.4|9=140|35=8|34=22|49=FEME|52=20210204-23:36:47.073|56=N2N|6=0|11=1612481806971|14=0|17=0|37=1612481806971|38=1|39=0|54=1|55=FMG3-MAR21|150=0|151=1|10=193
8=FIX.4.4|9=137|35=D|34=20|49=N2N|52=20210204-23:55:46.405|56=FEME|11=1612482946412|21=1|38=1|40=2|44=8|54=2|55=FMG3-JUN21|59=0|60=20210204-23:55:46.405|10=139|